{
  "_format": "hh-sol-artifact-1",
  "contractName": "Counter",
  "sourceName": "contracts/Counter.sol",
  "abi": [
    {
      "inputs": [],
      "stateMutability": "nonpayable",
      "type": "constructor"
    },
    {
      "inputs": [],
      "name": "getCount",
      "outputs": [
        {
          "internalType": "uint256",
          "name": "",
          "type": "uint256"
        }
      ],
      "stateMutability": "view",
      "type": "function"
    },
    {
      "inputs": [],
      "name": "increment",
      "outputs": [
        {
          "internalType": "uint256",
          "name": "",
          "type": "uint256"
        }
      ],
      "stateMutability": "nonpayable",
      "type": "function"
    }
  ],
  "bytecode": "0x6080604052348015600f57600080fd5b5060008081905550610170806100266000396000f3fe608060405234801561001057600080fd5b50600436106100365760003560e01c8063a87d942c1461003b578063d09de08a14610059575b600080fd5b610043610077565b60405161005091906100bc565b60405180910390f35b610061610080565b60405161006e91906100bc565b60405180910390f35b60008054905090565b600060016000808282546100949190610106565b92505081905550600054905090565b6000819050919050565b6100b6816100a3565b82525050565b60006020820190506100d160008301846100ad565b92915050565b7f4e487b7100000000000000000000000000000000000000000000000000000000600052601160045260246000fd5b6000610111826100a3565b915061011c836100a3565b9250828201905080821115610134576101336100d7565b5b9291505056fea264697066735822122048a22f7df80eb62271fc99437d197aa9eed84dcbb765b431a8d897480d92ce6f64736f6c634300081c0033",
  "linkReferences": {},
  "deployedLinkReferences": {}
}